:020000040000FA
:030000000200D328
:03001300020FD801
:03001B00020FFAD7
:03003B0002101C94
:03005B00020FA3EE
:1000730002104600000080FB120103B900030200D6
:10008300BDE4900F00782879048002F0A3D8FCD94E
:10009300FA901227AA82AB83900106789C7901809B
:1000A30015E493A3AC82AD838A828B83F0A3AA82E7
:1000B300AB838C828D83D8E9D9E77582DB75832680
:1000C30074001200E575827675830074001200E5F2
:1000D30075D0007581BF75100075110F759F0002F3
:1000E300007BC09FF59FE473D09F22D083D082C052
:1000F3009FE493C0E0740193C0E0740293F59F22E0
:10010300790122010000000A00000031323131314F
:1001130031313131313131313131313131313131CC
:1001230031313131313131310D0A006162632025C2
:10013300640D0A007278203D205B25735D2C694CA9
:10014300656E203D2025640D0A0000C201000000F9
:1001530000008813000030313233343536373839F4
:1001630041424344454600286E756C6C20706F69AC
:100173006E74657229003F3F3F000000807F0000DE
:10018300803FF9021550B743BA510000204100E700
:10019300DB2E0000A0401000000008000000120049
:1001A300EE7F28001200EE5D28001200EE6E28009C
:1001B3001200EEBF20001200EEDD20001200EE4D13
:1001C30021001200EEBC21001200EEF0210012000B
:1001D300EE4922001200EE9922001200EE7D230068
:1001E3001200EEA823001200EEBD23001200EE6001
:1001F30024001200EED724001200EEEE24001200B9
:10020300EE3625001200EE6D25001200EEE2250009
:100213001200EEF525001200EE0F26001200EE2963
:1002230026001200EE9326001200EE302800120082
:10023300EEA227001200EECC27001200EE70100091
:100243001200EE8E1500E493667013087401936632
:10025300700C08740293667005087403936622C0D9
:1002630008C3E096F50808A3E096420808A3E096C1
:10027300420808A3E0964208A2D265D033E508708D
:1002830001D3D00822C3E7960809E7960809E79641
:100293000809E79622C008C3E096F50808A3E0968C
:1002A300420808A3E096420808A3E09645087001B7
:1002B300D3D00822C3E4939608740193960874027A
:1002C3009396087403939622080808E630E7111200
:1002D3000B871202E3080808C64480C618181822C0
:1002E300181818E9799EC608CAC608CBC608CCC632
:1002F300C370207996CACBCC7019798ECBCC70138E
:100303007986CC700EF9802ACA33CACB33CBCC336F
:10031300CC331930E7F2CCCBCA3350147004EA3033
:10032300E00DE4CA3ACACB3BCBCC3CCC500209C368
:10033300E913C6CC182313C6CB18C6CA18C6F922AC
:1003430012038320F01430E72B74FFFCFBFA747F55
:100353008022E4FCFBFA7480801AB48008BC00F2AB
:10036300BB00EF800F50EBF9E4C39AFAE49BFBE484
:100373009CFCE499C6CC18C6CB18C6CA18C6F92289
:10038300E4C9C608CAC608CBC6D3330308CCC633F0
:1003930092F0C3947F402E94184019C9B90704CA38
:1003A300CBCC225025C309CA33CACB33CBCC33CCF5
:1003B30033D9F422F4600DC9CCC313CB13CBCA13C6
:1003C300CAD9F6CC22E4FCFBFA2214FCFBFA22E69F
:1003D300C33318461846184622E7C333194719474B
:1003E300194722181818E6084608700AE608C333A6
:1003F3007005E633F4220822191919E70947097031
:100403000AE709C3337005E733F4220922E60846F5
:1004130008C3134608336002E633F422E7094709A9
:10042300C3134709336002E733F422120410602533
:1004330012041F60201203D270030203DC080808B1
:10044300E76670101819E766700A1819E7667004F2
:100453001819E76622F422120410601C12041F60AC
:10046300171203D270071203DC7001D322C0D0121B
:1004730003DC7006D0D0B322C32233D0D050143063
:10048300E0F6C3E7960809E7960809E7960809E73F
:1004930096B32220E0D5E6970809E6970809E69780
:1004A3000809E697B322120410601B12041F60169A
:1004B3001203D270071203DC600CB322C0D0120304
:1004C300DC7005D0D022C32233D0D0501330E0EB00
:1004D300C3E7960809E7960809E7960809E796220D
:1004E30020E0E4E6970809E6970809E6970809E695
:1004F300972200120410604F12041F6012E7548009
:1005030066F61203E670111203DC703B090909F465
:10051300F618F618F618F6221203FB70151203D21A
:1005230008080860EAE6447FF618768018E4F618AF
:10053300F6221203D260161203DC7012E4F608F6F8
:1005430008F608E65480F609090918181822EAC0C3
:10055300E0EBC0E0ECC0E0EDC0E0E687F0A4FBAC6C
:10056300F008E687F0A42CFCE435F0FA1809E687D6
:10057300F0A42C4B60027401CA35F0FCE433FB0990
:10058300E687F0D2F7A42CCB35F0FC1908E687F008
:10059300A42BCC35F0FBE433FD0819E687F0D2E752
:1005A300A42C4ACB35F0CD3400FC09E687F0D2E722
:1005B300A42DCC35F0FDE433FA0918E687F0D2F721
:1005C300A42CCD35F0CA3400FC08E687F0D2E7D27C
:1005D300F7A42ACC35F07A7E20E70B0ACB33CBCDB8
:1005E30033CDCC33CC33CB3350147004ED30E00E29
:1005F300D2F1E4CD3DCDCC3CCC3B5005DA05C2F184
:10060300EB547FC63308E63392F0FBE73309E73355
:10061300C39A502D2B70190C0D4C4D70151806E60E
:1006230008C333700D20F10AA2F013F6E418800B0F
:100633004024E4F630F002768018F618F618F680B7
:1006430024D33B14501074FFA2F013F6187680E401
:1006530018F618F6800FA2F013F618E63303F6180F
:10066300ECF618EDF6D0E0FDD0E0FCD0E0FBD0E0F6
:10067300FA2212041F6046120410603DE9687008F4
:10068300F618F618F618F622748067F71206A90909
:100693000909748067F722120410601D12041F7089
:1006A30005191919801A1203E6701F1203FBC37090
:1006B30003E66733191919400718181822080808A0
:1006C30074FFF618F618F618F6221203FB601712D9
:1006D30003DC702192F01203D27019501720F0142A
:1006E300080808090909E7F61819E7F61819E7F6DB
:1006F3001819E7F6221203D260E6E869701F0808AA
:10070300E62480F608E436F618547FB47F0CE654EA
:10071300806007F6E418F618F622181822E9C6CC0A
:1007230008C6CD08C6CE08C6CFC0E0E8C0E0EAC020
:10073300E0EBC0E009E9F809E7FA09E7FBE6F91895
:10074300E6F8C3EC98ED99EE9AEBC2E7F5F0EFC249
:10075300E795F0500E600CEBCFFBEACEFAE9CDF94A
:10076300E8CCF8EAA2E7D2E7FAEB33FB13F5F0EEB5
:10077300A2E7D2E7FEEF33FFC5F013A2E730E601AD
:10078300B313C5F0C3C0E0C0F07F00C39BFB605B45
:100793009418600C401AD0E023F9D0E0F8020878EE
:1007A3008AF0E9486003D2F0E4AFF0FAF9F8803B4D
:1007B300EB30E40D89F0EA6003D2F0E4AFF0F9CA5C
:1007C300F8EB30E30D88F0EF6002D2F0AFF0E4CA4B
:1007D300C9F8EB54076014FBC3EA13FAE913F9E809
:1007E30013F8EF135002D2E0FFDBEDD0E0C0E030AE
:1007F300E739C3E49FFFF5F0EC98FC42F0ED99FD77
:1008030042F0EE9AFE42F0D0E0F9D0E0F8E5F06075
:100813007AE923F9EE20E742D8028067C3EF33FF7A
:10082300EC33FCED33FDEE33FE80EAEC28FCED39CE
:10083300FDEE3AFED0E023F9D0E0F84002801BC37E
:10084300EE13FEED13FDEC13FCEF135002D2E0FFA9
:1008530008B800067F7F74FF802EEF3350178CF0AB
:1008630020F00260100CBC000C0DBD00080EBE0091
:100873000408E860DFE933E813FFEE2313FE4F4D6E
:100883004C8008E95480FFE4FEFDFCEE33EF33F4C3
:100893007004FCFD7E80D0E0FBD0E0FAD0E0F8D01D
:1008A300E0CFC618CEC618CDC618CCC6F92212049E
:1008B3001070041818182212041F700D74FFF61814
:1008C30019F61819F61819F622E7548066F612037A
:1008D300D2700F1203DC70F014F608F608F608F66F
:1008E30080D11203DC700CF608F608768008E64423
:1008F3007F80EC1203FE700C1203E960BFE65480A4
:10090300F6E480BB1203E9700519191980A5E8699B
:10091300700C763F18768018F618F6E8F922E6CDC3
:10092300C0E018ECC0E0E633CD33CDD313F6E719BE
:10093300FCE7191933CC33C3947F400ECD9D50246B
:1009430008E65480F6E418F6800FF4043D145014BE
:1009530008E6447FF6187680E418F618F6D0E0FC33
:10096300D0E0FD22CCD313CCFD18E4C6CBC0E018F5
:10097300E4C6CAC0E00808ED08C633E613F618E477
:1009830033C675F003C3CA97CA09CB97CB199C40EA
:10099300047D08802EBD0003020A5A16B6FF050621
:1009A30006081618C3CA33CACB33CB33CA27CA09BE
:1009B300CB37CB193CC37D08803E187D0820E75C0C
:1009C300C633C6CA33CACB33CB33DDF1D5F0EB30F4
:1009D300E77BCA97CA09CB974ACB199C406F4B70E8
:1009E30025E620E0218066187D08C3CA97CA09CB93
:1009F30097CB199CD3C633C6CA33CACB33CB335038
:100A0300C9DDE7D5F0E1D3E4C636C608C636C60865
:100A1300C636C608C636C61818188031C3CA97CA60
:100A230009CB97CB199CB34097C633C6CA33CACBFD
:100A330033CB33DD34D5F02EC6A2E0C640C8CA2777
:100A4300CA09CB37194A70BECB3CB480B90808E653
:100A53003308E633601F181818D0E0FAD0E0FBD053
:100A6300E0FCD0E0FD22187D08CA27CA09CB37CBAA
:100A7300193CD3808013F618E4B67F11F618B6FF3D
:100A83000EF618C60470D20808768080CAF618F6E7
:100A930018F680C5080808EAC0E0EBC0E086F0E776
:100AA300A4FA180986F0E7A42AFA180986F0E7A43D
:100AB3002AFA180986F0E7A42AFA1986F0E7A4FBB4
:100AC300E5F02AFA190886F0E7A42BFBE5F03AFAD9
:100AD300190886F0E7A42BFBE5F03AFA1818098603
:100AE300F0E7A4C5F02BFBE43AFA1908E7C5F0C612
:100AF300A426F6E5F03BFBE43AFA1886F0E7A4F601
:100B0300E5F00826F6E43B08F6E43A08F6D0E0FB05
:100B1300D0E0FA22E4CFC0E0E4CEC0E0E4CDC0E010
:100B2300E4CCC0E075F020C3E633F608E633F608FC
:100B3300E633F608E633F6181818EC33FCED33FD0C
:100B4300EE33FEEF33FFC3EC9709ED9709EE9709F8
:100B5300EF97191919400FFFEC97FC09ED97FD0961
:100B6300EE97FE191906D5F0BEECF709EDF709EE7D
:100B7300F709EFF7191919D0E0FCD0E0FDD0E0FE3A
:100B8300D0E0FF22181818E4C396F608E496F60896
:100B9300E496F608E496F622E026F608A3E036F695
:100BA30008A3E036F608A3E036F622E026F008A311
:100BB300E036F008A3E036F008A3E036F022E0F6D2
:100BC30008A3E0F608A3E0F608A3E0F622E6F0089F
:100BD300A3E6F008A3E6F008A3E6F022E0FAA3E018
:100BE300FBA3E0FCA3E0FD22EAF0A3EBF0A3ECF00F
:100BF300A3EDF022CAC0E0E6F0A308DAFAD0E0FAE7
:100C030022CAC0E0E0A3C582CCC582C583CDC5831B
:100C1300F0A3C582CCC582C583CDC583DAE6D0E017
:100C2300CA22C3E498F8E499F9120C668026C3E457
:100C33009AFAE49BFBE920E7E9120C66E498F8E4EE
:100C430099F922C3E498F8E499F9120C66E498F848
:100C5300E499F9C3E49AFAE49BFB22EB20E7CFE99A
:100C630020E7E0B90010BB0008E88AF084F8AAF096
:100C730022E4FBC8FA22EB70227B10C833C8C933C5
:100C8300C9335007C39AC3DBF280069A50012ADBAB
:100C9300EAC833F4C8C933F4C9FA2275F008E4C8C2
:100CA30033C8C933C933C99AC99B5004C92AC93B3C
:100CB300D5F0ECFBC833F4C8E4C9FA22251010AF11
:100CC30008F510400215118008F51040021511D2E5
:100CD300AF22C0D0251010AF08F5105002051180C7
:100CE30008F51050020511D2AFD0D0222510F5829D
:100CF30010AF08F510400215118008F510400215D9
:100D030011D2AF851183222510F582E43511F583C5
:100D130022E4732510C582C0E0E51134FFC583C00A
:100D2300E0E510C3958224F810AF0885831185820E
:100D3300108008858311858210D2AFCEF0A3E52001
:100D4300F0A37808E608F0A3DEFAEFF0A3E5812428
:100D5300FAF8E608F0A3E608F0A3E608F0A308080B
:100D6300E608F0A3E608F0A315811581D0E0FED0D4
:100D7300E0F8158115811581E8C0E0EEC0E0228519
:100D83001183851082E0A3FEE0A3F5207808E0A399
:100D9300F608DFFAE0A3FFE0A3C0E0E0A3C0E0E0D1
:100DA300A3C0E0E0A3C0E0E0A3C0E010AF088582E9
:100DB300108583118008858210858311D2AFD0837B
:100DC300D0820200EBC0D02510C582C0E0E511340B
:100DD300FFC583C0E0E510C3958224F310AF0885F7
:100DE30083118582108008858311858210D2AFC854
:100DF300F0A3E9F0A3EAF0A3EBF0A37908E709F085
:100E0300A3D8FAECF0A3EDF0A3EEF0A3EFF0A3D098
:100E1300E0F0A3D0E0F0A3D0E0F0A3E520F0A3E559
:100E2300F0F0A322851183851082E0C0E0A3E0F9EE
:100E3300A3E0FAA3E0FBA37808E0F608A3DFFAE057
:100E4300FCA3E0FDA3E0FEA3E0FFA3E0C0E0A3E07A
:100E5300C0E0A3E0F5D0A3E0F520A3E0A3F5F010F4
:100E6300AF088583118582108008858311858210E0
:100E7300D2AFD082D083D0E0F8D0E03274048006C1
:100E8300740280027401C0E0F404120CEFD0E0128B
:100E93000BF7227404800474028000CCC0E0EDC020
:100EA300E0E510C39CCCAD1150011D10AF068C10B2
:100EB3008D1180068C108D11D2AF120C04D0E0FD81
:100EC300D0E0FC22D083D082ECC0E0EDC0E0EEC0E5
:100ED300E0EFC0E0E493A3FCE493A3FDE493A3FE5B
:100EE300E493A3FFEF4E4D4C6015120F43EC24FF28
:100EF300FCED34FFFDEE34FFFEEF34FFFF80E5E44D
:100F030093A3FCE493A3FDE493A3FEE493A3FFEF75
:100F13004E4D4C6015120F80EC24FFFCED34FFFDA9
:100F2300EE34FFFEEF34FFFF80E5D0E0FFD0E0FEBC
:100F3300D0E0FDD0E0FCE493A3C0E0E493C0E02262
:100F4300C0E0C0F088F01202B7A8F04007120249CF
:100F5300A8F0701AA3A3A3A31202B7A8F0A3A3A394
:100F6300A34013D0F0D0E0D0E0D0E0020F2DA3A334
:100F7300A3A3A3A3A3A3A3A3D0F0D0E022C0E0C064
:100F8300F088F0120249A8F0A3A3A3A3700BD0F03A
:100F9300D0E0D0E0D0E0020F2DA3A3D0F0D0E02228
:100FA300C0E074EF120DC89012277808120BC1909D
:100FB3000F007808120BAE1201CB900F04E024014E
:100FC300F0900F04E0C394324006900F047400F0D5
:100FD3007F04020E27C0E074F2120DC8C28BA9C1B0
:100FE3007A057B0F1201B9E990100D7400F0A37418
:100FF30000F07F01020E27C0E074F2120DC8C28F09
:10100300A9F97A137B101201B9E990111B7400F04E
:10101300A37400F07F01020E27C0E074F2120DC822
:10102300C2E97A057B0F1201DDE9600890100F74A5
:1010330000F0800A7A057B0F1201EFE9F5C17F0109
:10104300020E27C0E074F2120DC8C2E97A137B10B6
:101053001201DDE9600890111D7400F0800A7A1313
:101063007B101201EFE9F5F97F01020E2774F012EC
:101073000D1674FD120CBF7402120D0AE9F08A08F2
:101083008B098C0A8D0B7415120D0AE0FEA3E0FF89
:10109300851082851183E4F0A3F08E828F83A3AA47
:1010A30082AB8390129E780C120BC17808790C12D4
:1010B300042E70188E828F83746912154F746EF02C
:1010C300A37466F0A30A0AAB830214EA78087908CA
:1010D30012042E60118E828F83746E12154F746109
:1010E300F0A3746E80DD9012A2780C120BC1780805
:1010F300790C12045A500302119A901272780C124E
:101103000BC17808790C12042E60030211EE7417D8
:10111300120D0AE07003021230851082851183C01C
:1011230082C0837413120D0A121F8DD083D08212D2
:101133001528502C851082851183C3E094FCA3E00D
:1011430094FFA2D265D03340177402120D0AE41241
:101153002061F97413120D0AC3E098F0A3E099F02B
:101163007413120D0A1215457418120D0AE0700358
:1011730002122D7417120D0AE402122F9012A67890
:101183000C120BC17808790C1208B18510828511F5
:1011930083E0240A12209E9012AA780C120BC178C5
:1011A30008790C12045A40D49012AE780C120BC179
:1011B3007808790C12045A40030211119012AE7888
:1011C3000C120BC17808790C1208B112209580D843
:1011D3009012A6780C120BC17808790C1204F585CD
:1011E3001082851183E024F61215489012B2780C10
:1011F300120BC17808790C1204A940D49012A2787A
:101203000C120BC17808790C1204A94003021111C6
:101213009012AE780C120BC17808790C1204F58584
:10122300108285118312154580D27401F074021265
:101233000D0AE060077A007B0002133C121534505C
:101243007D8E828F837430F0EAFEEBFF7413120DF0
:101253000AE0FCA3E0FDEC4D70087418120D0AE0DF
:10126300600B8E828F83742EF0A30EAF837A007B84
:101273000080118E828F8374301215707413120DD7
:101283000A121545EA24FF1AEB34FFFB8510828509
:10129300118312151C500B7413120D0A121F91495E
:1012A30070D185108285118374FFC39CF874FF9DF0
:1012B300F9121528500302140A7A0102123A851012
:1012C30082851183121F8DC3E498FAE499FB806928
:1012D30085080C85090D850A0E850B0F780C120302
:1012E30043AC0CE50D3395E0F50EF50F780C1202C7
:1012F300CB7808790C1206759012AE780C120BC1DC
:101303007808790C1204F5EC12156AEAF8EBF9E89F
:1013130024010AE93400FBE849701E7413120D0A14
:10132300121F914970087418120D0AE0600B8E8227
:101333008F83742EF0A30EAF837413120D0A12154C
:101343001C508D9012B6780C120BC17808790C12D0
:10135300045A400302140A7C01EE24FFF8EF34FF21
:10136300F97415120D0AE0F508A3E0F509888289DE
:1013730083E0642E6010E02CF0643A70077430F060
:101383007C0180027C00E8FAE9FBEA24FF18EB34D5
:10139300FFF9C3E5089AE5099B40D2ECA2E0506748
:1013A3007402120D0AE06036EEF8EF800A12150798
:1013B300E824FF18E934FFF9C3E50898E5099950D3
:1013C300181214F4E0642E70E4E824FEF582E93484
:1013D300FFF583121501F980D7122095801E8E82A6
:1013E3008F83A3AE82AF83EEF8EF80061214F4125C
:1013F3001501F9C3E50898E5099940F07415120D34
:101403000A121FAC7431F07417120D0AE0700580D4
:101413001A1EAF83EE24FFF582EF34FFF583E064F9
:101423003060EEE0642E70031EAF837402120D0A67
:10143300E070030214E612156CA3A9831215348E0F
:10144300828F835014742DF00EE9FF85108285116D
:1014530083121FD512155D8006742BF00EE9FF7CF5
:10146300007D00EE240AFEEF3400FFEC24010CEDB6
:101473003400FD12150E120C5EEA12156A12150ED7
:10148300120C5E1215774970E2C3EC9402ED121F41
:101493003E40D8ECFAEDFBC3E49CF8E49DF9EE285A
:1014A300F582EF39F583E0C0E0C3E49AF8E49BF9F1
:1014B300EE28F8EF39F9E82CF8E93DF9E824F5F5D9
:1014C30082E934FFF583D0E0F0EC24FF1CED34FF18
:1014D300FDC3EC9401ED121F3E50BCEE24F6FEEF6B
:1014E30034FFFFEEFAEFFB7403120CD57F08020DF5
:1014F30082E824FFFAE934FFFB8A828B83221215E8
:101503000718EB22E088828983F0228510828511F7
:1015130083121FE27A0A7B0022C3E09AA3E09BA214
:10152300D265D03322C3E098A3E099A2D265D03329
:1015330022851082851183C3A3E09400A2D265D0D3
:101543003322E024FFF0A3E034FFF022F0EAFEEBC5
:10155300FF8E828F8322A3E03400F98510828511E8
:1015630083E8F0A3E9F02224308E828F83F0A3AEC8
:1015730082AF832285108285118312158122E8F0C0
:10158300A3E9F0851082851183E02274F0120D1611
:1015930074B0120CBF851082851183122047741812
:1015A300120D0AECF0A3EDF0740F120D0AE4F0A390
:1015B30080227460120D0A121F7D7404120D0AE05A
:1015C300F97418120D0A121FAC120D14740F120DB8
:1015D3000A121F46F0121FC0FA122080120D0AEAE7
:1015E300F074256A6010E070C9740F120D0A121F9F
:1015F3007D74500214EC121FC0642570198510828B
:10160300851183E02401081215597460120D0A1222
:101613001F7D792580AB740E120D0AE4F0740D1250
:101623000D0AE4F0740C120D0AE4F07405120D0AAD
:10163300E4F0741E120D0AA882A9837402120D0A23
:1016430080157405120D0AE070077405120D0AEA7D
:10165300F085108285118312157D121F74122007E5
:10166300FA24E060DD24FD601724F860DD24FE60C9
:101673000624FD600F8011740C120D0AE00480D063
:10168300740D80F5740E80F1122007642A705B7468
:1016930062120D0A122012FB8A828B83E0FCA3E004
:1016A300FD740A120D0AECF0A3EDF0EA24020A0A13
:1016B300EB3400FB7462120D0A12203F740A120D00
:1016C3000A12153A501F740A120D0A121F7DC3E441
:1016D3009AFAE49BFB740A120D0A122047740C1247
:1016E3000D0AE004F012155E804A740A120D0AE432
:1016F300F0A3802D740A120D0A121F9175F00AA42B
:10170300F8AAF075F00AE9A42AF9E50828F8E439FB
:10171300F9E824D0F8E934FFF9740A120D0A12200B
:10172300A5122061F5838882E0F50874D02508C3EB
:10173300940A40C0740C120D0AE06007740E120D77
:101743000AE4F0121FC0642E60030217D9851082C9
:10175300851183E0240108A3E03400F91215771200
:101763001FB1E0642A702C7462120D0A121FC6F8AE
:10177300A3E0F988828983E0FEA3E0FFE82402085E
:1017830008E93400F97462120D0A121FFA1220A537
:10179300F080477E007F00851082851183121FCF62
:1017A30074D02508C3940A5031EE75F00AA4FEA83C
:1017B300F075F00AEFA428FFE5082EF8E43FF9E8F6
:1017C30024D0FEE934FFFF851082851183E02401D4
:1017D300F812155980C17EFF7FFF7A00851082853C
:1017E3001183121F6F851082851183E0FBA3E0F53F
:1017F300838B82E024B4600824E4600524FC700435
:101803000A12155E121FC0FB122080120D0AEBF0A4
:101813007003021DE424BB7003021CAA24FE7003A0
:10182300021C8C24EF70030219D624F570030218EE
:10183300DB147003021A7B147003021CAA147003D6
:10184300021CA8147003021C8C24FE7003021A7B72
:1018530024FB60241470030219C61470030219D602
:1018630024FD700302191424FE70030219D624FD0B
:1018730070030219D6021DF07462120D0A12203988
:10188300120D0A121564EAA2E0740F5033120D0A06
:10189300E0FCA3E0FD3395E0FE7406120D0A12206E
:1018A3001AECF0A3EDF0A3EEF0A3F07462120D0AAC
:1018B300122021120D0A121FFAE8F0A3E90215D72C
:1018C300120D0A121F8D7406120D0A122012F583CF
:1018D3008A82E8F0A3E980D27462120D0A12201AF8
:1018E300E0C0E0741E120D0AD0E0F07462120D0A1B
:1018F300122021120D0A121FFA121564741F120D01
:101903000AA882A9837412120D0AE8F0A3E9021E41
:10191300077462120D0A122039120D0A121564742B
:1019230006120D0A122039120D0AE02402FAA3E06E
:101933003400FB7462120D0A12203F7402120D0A66
:10194300121564E849700C7402120D0A748BF0A32B
:101953007412F0121F3C50047E107F277408120D7E
:101963000AE4F0A380087408120D0A121F46F074EB
:1019730002120D0A121F8D88828983A3AA82AB8368
:101983007402120D0A12204788828983E0600A7468
:1019930008120D0A121F9640CD7402120D0A121F6F
:1019A3005D7412120D0A1215647408120D0A121FC7
:1019B300D5F97412120D0AE028F8A3E039F974027C
:1019C30002190A740D120D0AE06008EE4F70047ECE
:1019D300017F007462120D0A122039120D0A1220BF
:1019E3008D120D0AE0647070387406120D0A12200D
:1019F3002F120D0A122068120D0AE02402121FF1A1
:101A0300120D0A121FFA1215649012BA120BDF7428
:101A13001A120D0A120BEB7405120D0AE4F0021BE5
:101A23000BEAA2E07406501B120D0A121FAC120B34
:101A3300DF7414120D0A120BEB7406120D0AE02464
:101A4300048012120D0A12202F120D0A122068129E
:101A53000D0AE02402121FF1120D0A121FFA1220BE
:101A63008D120D0AE0646F70059012BE809EE064D3
:101A730075709690122B80947462120D0A1220399D
:101A8300120D0A121564EAA2E074065016120D0A2A
:101A9300121FAC7808120BC17406120D0AE024045D
:101AA300F8801B120D0A121FCFA3E0F5093395E04E
:101AB300F50AF50B7406120D0AE024020808121F3A
:101AC300F2120D0A122075120D0A7808120BD0902B
:101AD3001272780812026240217405120D0A742DE5
:101AE300F07414120D0A7808120BC17808120B8ACD
:101AF3007414120D0A7808120BD090122B120BDFFC
:101B0300741A120D0A120BEB744F120D0AA882A954
:101B1300837402120D0A1215647412120D0A122034
:101B230078120D0A7808120BC1E5084509450A45E4
:101B33000B60097411120D0A740180067411120DE1
:101B43000AE4F0EE4F7008E0A2E04003021BFF74CA
:101B530002120D0A121FA6120D0A122078120D0A84
:101B6300780C120BC1741A120D0A7808120BC17883
:101B73000C7908120B17747A2508F582741235094B
:101B8300F583E0C0E07402120D0A121FACD0E0F03E
:101B93007414120D0A780C120BC1741A120D0A7800
:101BA30008120BC1780C7908120B177414120D0A62
:101BB300780C120BD07414120D0A7808120BC1E5BD
:101BC300084509450A450B7086121F3C502E740EBA
:101BD300120D0AE060267405120D0AE06004D2F0CB
:101BE3008002C2F0740A120D0A121F4F800E740293
:101BF300120D0A122059120D0A121FB97402120D86
:101C03000A121F5D744F120D0AC082C08374021240
:101C13000D0A121F7DD083D082E582C39AFAE58331
:101C23009BFBC3EA9EEB121F9F40C3740D120D0A68
:101C3300E07003021E087411120D0AE0A2E04003D3
:101C4300021E087404120D0AE064786005E064580B
:101C5300701E121507E824FF18E934FFF974021205
:101C63000D0A122059120D0A121FAC7430021E07FE
:101C7300E0646F6003021E087402120D0A12200D45
:101C830064307003021E0880D47408120D0A7401B4
:101C9300F0A3E4F07404120D0AE024FEF0EE4F709A
:101CA3000F7E018012E4F07408120D0AE4F0A3F031
:101CB300121F3C50047E067F007462120D0A12202C
:101CC30039120D0A1215647406120D0A121FAC782C
:101CD3000C120BC17406120D0AE02404121FF11238
:101CE3000D0A122075120D0A780C120BD090127285
:101CF3007808120BC1780C79081204A950227405D4
:101D0300120D0A742DF07414120D0A7808120BC107
:101D1300E50BB2E7F50B7414120D0A7808120BD019
:101D2300740A120D0A121F8D741E120D0AE5822801
:101D3300F8E58339F97402120D0A121564740D1251
:101D43000D0AE0F5087808120E877409120D0AE0EF
:101D5300F5087808120E877404120D0A120E9A8E73
:101D6300088F097808120E83740A120D0AE0F974B9
:101D73001A120D0A120BDF12023D7406120CD574EF
:101D830012120D0A122047740E120D0AE0607674C7
:101D930005120D0AE06004D2F08002C2F0740A1248
:101DA3000D0A121F4F7412120D0AC082C0837402EF
:101DB300120D0A121F8DD083D082E0C398F8A3E0DE
:101DC30099F9C3E89EE9121F9F503A7402120D0A53
:101DD300121FA6120D0A122059120D0A121FB980E2
:101DE300C4851082851183121F6612155D74021259
:101DF3000D0A749AF0A37412F07412120D0A749DF2
:101E0300F0A37412F07412120D0AC082C08374021C
:101E1300120D0A121F8DD083D082E0C398FEA3E077
:101E230099FF740A120D0A121F96500A7408120DB4
:101E33000AE4F0A380307405120D0AE06004D2F0C6
:101E43008002C2F0740A120D0AE0C39EF8A3E09F59
:101E5300F9A2F0E433FAE89AF8E99400F974081265
:101E63000D0AE8F0A3E9F0740C120D0AE0702B8060
:101E7300197460120D0A121F83120D0A121FAC127D
:101E83000D14740F120D0A12209B7408120D0A12FE
:101E9300204D120D0A12153A50D77405120D0AE09F
:101EA30060507460120D0A121F7D7405120D0AE052
:101EB300F97418120D0A121FAC120D14802C7460E1
:101EC300120D0A121F7D7402120D0A121FC6F97435
:101ED30018120D0A121FAC120D147402120D0A12FD
:101EE3001F6F7402120D0A121564740F120D0A1279
:101EF300209BEE24FF1EEF34FFFFC3121F3E50BE94
:101F0300740C120D0AE070030215D87408120D0A3E
:101F130012204D120D0A12153A50030215D874609F
:101F2300120D0A121F83120D0A121FAC120D147424
:101F33000F120D0A12209B80D2C3EF9400A2D26528
:101F4300D03322E02401F0A3E0340022A2F0E433F2
:101F5300F8E098FEA3E09400FF22121F6122121FF3
:101F630066F922E024FFF8A3E034FF22E0121F7495
:101F7300222401F8A3E03400F922E0FAA3E0FB22D3
:101F8300E0FAA3E0FB7920741822121FE222121F49
:101F9300E2E822C3E09EA3E0121F9F229FA2D26524
:101FA300D03322121F61740222121FB022E0F8A361
:101FB300E0F583888222121FB07430F022851082EC
:101FC300851183121FCA22121FE8E022121FCAF5CD
:101FD3000822121FE2C3E498F8E49922121FE8E0F2
:101FE300F8A3E0F922E0F8A3E0F583888222F8A3BE
:101FF300E03400F9746222121FFE22E0FAA3E0F536
:10200300838A8222851082851183121FFEE02212A9
:102013001FFEE0FAA3E022121FCA121FB122121FF1
:10202300CA2402F8A3E03400F9746222121FDFE825
:10203300FAE9FB741422121FDF740622E0FCA3E00A
:10204300F5838C82EAF0A3EBF022E024FFF0A3E017
:1020530034FFF0740822E8F0A3E9F07402221215A9
:1020630085F8A3E022EAF0A3EBF0A3E4F0A3F07475
:102073000622121FFEE8F0A3E9F0741422851082F1
:10208300851183E02401081220B3E8F0A3E9F0747A
:102093000422851082851183E02401F0A3E034003B
:1020A300F0221215812401F81220B3E8F0A3E922EB
:1020B300A3E03400F985108285118322C082C08396
:1020C300EA2402F582EB3401F583E07004790180A0
:1020D300027900D083D0820200EB74F7120D1689C7
:1020E30008EAFEEBFF1201C5E9600479008056E5BA
:1020F30008EE2401F582EF3401F583E0F87900EE70
:1021030028F582EF39F583E508F0EE2401F582EF37
:102113003401F583E02401F0EE2401F582EF34016C
:10212300F583E0C394F0400DEE2401F582EF340112
:10213300F5837400F0EE2402F582EF3401F583E0B9
:102143002401F079017F01020D8274F7120D16EA62
:10215300FEEBFF7508001201B3E960047961805456
:10216300EE2400F582EF3401F583E0F87900EE28E0
:10217300F582EF39F583E0F508EE2400F582EF34BC
:1021830001F583E02401F0EE2400F582EF3401F53C
:1021930083E0C394F0400DEE2400F582EF3401F5A3
:1021A300837400F0EE2402F582EF3401F583E0241A
:1021B300FFF0A9087F01020D82C082C083EA2402D6
:1021C300F582EB3401F583E0F879002401F8E93472
:1021D30000F9C3E894F0E99400A2D265D033400437
:1021E300790180027900D083D0820200EBC082C0E3
:1021F3008390100DC082C08390100BE0F8A3E0F928
:10220300D083D082C3E098A3E099500C90100DE0E6
:102213002401F0A3E03400F090111BC082C083902E
:102223001119E0F8A3E0F9D083D082C3E098A3E0CA
:1022330099500C90100DE02401F0A3E03400F0D08D
:1022430083D0820200EB74F2120D16EAFEEBFF8CD0
:10225300088D09890C750D00750D008021EEFAEFCC
:10226300FB1201BFE9C0E0850D0A750B00E50825E7
:102273000AF582E509350BF583D0E0F0050DE50D90
:10228300C3950C500AEEFAEFFB1201B3E960CEA935
:102293000D7F06020D8274F0120D1674F7120CBF37
:1022A3007407120D0AEAF0A3EBF07405120D0AECA1
:1022B300F0A3EDF0E9851082851183F07419120DF6
:1022C3000A780C120BC11201A77401120D0A120B2A
:1022D300EB90122B7808120BC1780C7908120A972D
:1022E3007401120D0A780C120B9B7401120D0A78FB
:1022F30008120BC17E007401120D0A780C120298A9
:102303004004740180027400FF851082851183E00C
:10231300C39EF9EEFA7B007405120D0AE02AFCA3B2
:10232300E03BFD7407120D0AE0FAA3E0FB1201D1B2
:10233300E92EFE1201A78A088B098C0A8D0BEF6028
:10234300177401120D0A78081202984014780C7958
:1023530008120288400B8016780C79081202885004
:102363000D851082851183E0F8EEC398409BEEF94A
:102373007409120CD57F08020D82C082C083EA243F
:1023830003F582EB3401F583E0F8EA2404F582EBEC
:102393003401F583E0687004790180027900D08309
:1023A300D0820200EBC082C0831201F5E9F8740FFA
:1023B300C398F9D083D0820200EB74F2120D168C0D
:1023C300088D09890AEAFEEBFF1201E3E9F9E9C383
:1023D300950A5004E9F88002A80AE8F9750A008012
:1023E30071850A0C750D00E508250CF582E50935A4
:1023F3000DF583E0C0E0EE2404F582EF3401F583AC
:10240300E0FA7B00EE2AFAEF3BFBEA24F0F582EBDD
:102413003400F583D0E0F0EE2404F582EF3401F5C7
:1024230083E02401F0EE2404F582EF3401F583E028
:10243300C39410400DEE2404F582EF3401F5837448
:1024430000F0EE2405F582EF3401F583E02401F07A
:10245300050AE50AC39940897F06020D8274F712C3
:102463000D16EAFEEBFF7508001201DDE960047941
:1024730000805CEE2403F582EF3401F583E0F87904
:1024830000EE28F8EF39F9E824F0F582E93400F595
:1024930083E0F508EE2403F582EF3401F583E024AD
:1024A30001F0EE2403F582EF3401F583E0C39410C9
:1024B300400DEE2403F582EF3401F5837400F0EE52
:1024C3002405F582EF3401F583E024FFF0A9087FAA
:1024D30001020D82C082C083EA2405F582EB340138
:1024E300F583E0F9D083D0820200EB74F7120D1666
:1024F3008908EAFEEBFFA908EEFAEFFB1201E9E90E
:10250300F9EE240AF582EF3401F583E07020EE241E
:102513000AF582EF3401F5837401F0EE240BF582A2
:10252300EF3401F583E07004D2E98002D2EA7F013F
:10253300020D8274F2120D168A088B098C0C8D0D14
:10254300E9FF7E00EFC39EF98E0A750B00E50C25AB
:102553000AFCE50D350BFDAA08AB091201FBE92EB8
:10256300FEEF6E70DF7F06020D8274F4120D168A81
:10257300088B098C0A8D0BE960051460538057752D
:10258300F10075F30C53FF3F4386807808120EC7A2
:10259300000000000200000080250000C22500C2E8
:1025A3000100A925CD2553C5F043C50B75C2D8C27B
:1025B300E9438640D2AA439A047A057B0F801B53D2
:1025C300C5F043C50875C23B80E57A007B00800AED
:1025D3007A137B1080047A007B007F04020D82C093
:1025E30082C083901121EAF0A3EBF0D083D0820262
:1025F30000EBC082C083EA2406F582EB3401F58345
:10260300ECF0A3EDF0D083D0820200EBC082C08354
:10261300EA240CF582EB3401F583ECF0A3EDF0D062
:1026230083D0820200EB74F6120D1674FE120CBFF7
:10263300740C120D0AA882A983851082851183E880
:10264300F0A3E9F0851082851183858208858309CB
:102653007808120E83EAFCEBFD7A237B1112023712
:102663007402120CD59011A3EAF0A3EBF09011A31E
:10267300E0F8A3E0F9E8F97C237D11901121E0FA59
:10268300A3E0FB1202017402120CD57F02020D8239
:10269300C082C08374FF120CBF801779018510823A
:1026A300851183AC82AD839011A5E0FAA3E0FB1200
:1026B30002017901851082851183AC82AD8390116B
:1026C300A5E0FAA3E0FB1201D1E970CF7401120C6B
:1026D300D5D083D0820200EB1201A11201AD90127A
:1026E3006E120BDF79001202079011A5EAF0A3EB3B
:1026F300F09011A5E0FAA3E0FB12020D7CF47D013A
:102703009011A5E0FAA3E0FB1202137C257D029051
:1027130011A5E0FAA3E0FB120219D2AF7A2F7B12C4
:1027230012021F901272780C120BC1780C120E7FDA
:102733007A4F7B1212021F7404120CD59012277861
:102743000C120B9B901276120E96790A7CA77D11C0
:102753009011A5E0FAA3E0FB1201D77404120CD583
:10276300E9F5087509007808120E837508A775093D
:10277300117808120E837A587B1212021F74041206
:102783000CD57508807509007808120E837C007DCE
:10279300007AA77B1112022B7402120CD5808CC015
:1027A30082C0838A828B83122827E9F08A828B83F3
:1027B300E02401FCA3E03400FD8A828B83ECF0A3C8
:1027C300EDF0D083D0820200EB74F6120D1674FE86
:1027D300120CBF851082851183EAF0A3EBF0ECFAAB
:1027E300EDFB740C120D0AE0F508A3E0F509780877
:1027F300120E837402120D0A8582088583097808F4
:10280300120E837C317D021202437404120CD585AF
:102813001082851183122827E4F07402120CD57FED
:1028230002020D82E0F8A3E0F58388822274F71296
:102833000D167409120D0AE0F8A3E0F98A828B835E
:102843008003ECF0A3E8FEE9FFEE24FF18EF34FF6A
:10285300F9EE4F70ED7F01020D82C082C083900FAD
:1028630000120BDFD083D0820200EB75CBE243CCA6
:102873000475CD1843CB10D2BB0200EB75C600E53F
:08288300C6659E70FA0200EB2D
:04000005000000D324
:00000001FF
